{
  "_format": "hh-sol-artifact-1",
  "contractName": "HabitManager",
  "sourceName": "contracts/HabitManager.sol",
  "abi": [
    {
      "inputs": [
        {
          "internalType": "address",
          "name": "_stakeTokenAddress",
          "type": "address"
        },
        {
          "internalType": "address",
          "name": "_nftContractAddress",
          "type": "address"
        },
        {
          "internalType": "address",
          "name": "_trustedForwarder",
          "type": "address"
        }
      ],
      "stateMutability": "nonpayable",
      "type": "constructor"
    },
    {
      "anonymous": false,
      "inputs": [
        {
          "indexed": true,
          "internalType": "address",
          "name": "user",
          "type": "address"
        },
        {
          "indexed": false,
          "internalType": "bytes32",
          "name": "habitHash",
          "type": "bytes32"
        }
      ],
      "name": "ChallengeFailed",
      "type": "event"
    },
    {
      "anonymous": false,
      "inputs": [
        {
          "indexed": true,
          "internalType": "address",
          "name": "user",
          "type": "address"
        },
        {
          "indexed": true,
          "internalType": "bytes32",
          "name": "habitHash",
          "type": "bytes32"
        },
        {
          "indexed": false,
          "internalType": "uint256",
          "name": "duration",
          "type": "uint256"
        },
        {
          "indexed": false,
          "internalType": "uint256",
          "name": "stakeAmount",
          "type": "uint256"
        }
      ],
      "name": "ChallengeStarted",
      "type": "event"
    },
    {
      "anonymous": false,
      "inputs": [
        {
          "indexed": true,
          "internalType": "address",
          "name": "user",
          "type": "address"
        },
        {
          "indexed": false,
          "internalType": "uint256",
          "name": "newStreak",
          "type": "uint256"
        },
        {
          "indexed": false,
          "internalType": "uint256",
          "name": "checkInTime",
          "type": "uint256"
        }
      ],
      "name": "CheckedIn",
      "type": "event"
    },
    {
      "anonymous": false,
      "inputs": [
        {
          "indexed": true,
          "internalType": "address",
          "name": "user",
          "type": "address"
        },
        {
          "indexed": false,
          "internalType": "uint256",
          "name": "milestone",
          "type": "uint256"
        }
      ],
      "name": "NFTAwarded",
      "type": "event"
    },
    {
      "anonymous": false,
      "inputs": [
        {
          "indexed": true,
          "internalType": "address",
          "name": "user",
          "type": "address"
        },
        {
          "indexed": false,
          "internalType": "uint256",
          "name": "stakeReturned",
          "type": "uint256"
        },
        {
          "indexed": false,
          "internalType": "uint256",
          "name": "bonusReward",
          "type": "uint256"
        }
      ],
      "name": "RewardClaimed",
      "type": "event"
    },
    {
      "inputs": [],
      "name": "CHECKIN_WINDOW",
      "outputs": [
        {
          "internalType": "uint256",
          "name": "",
          "type": "uint256"
        }
      ],
      "stateMutability": "view",
      "type": "function"
    },
    {
      "inputs": [],
      "name": "STAKE_AMOUNT",
      "outputs": [
        {
          "internalType": "uint256",
          "name": "",
          "type": "uint256"
        }
      ],
      "stateMutability": "view",
      "type": "function"
    },
    {
      "inputs": [
        {
          "internalType": "address",
          "name": "",
          "type": "address"
        }
      ],
      "name": "activeChallenges",
      "outputs": [
        {
          "internalType": "bool",
          "name": "isActive",
          "type": "bool"
        },
        {
          "internalType": "uint16",
          "name": "streak",
          "type": "uint16"
        },
        {
          "internalType": "uint256",
          "name": "stakeAmount",
          "type": "uint256"
        },
        {
          "internalType": "bytes32",
          "name": "habitHash",
          "type": "bytes32"
        },
        {
          "internalType": "uint256",
          "name": "startTime",
          "type": "uint256"
        },
        {
          "internalType": "uint256",
          "name": "duration",
          "type": "uint256"
        },
        {
          "internalType": "uint256",
          "name": "lastCheckInTime",
          "type": "uint256"
        }
      ],
      "stateMutability": "view",
      "type": "function"
    },
    {
      "inputs": [],
      "name": "checkIn",
      "outputs": [],
      "stateMutability": "nonpayable",
      "type": "function"
    },
    {
      "inputs": [],
      "name": "claimReward",
      "outputs": [],
      "stateMutability": "nonpayable",
      "type": "function"
    },
    {
      "inputs": [],
      "name": "forfeitedPool",
      "outputs": [
        {
          "internalType": "uint256",
          "name": "",
          "type": "uint256"
        }
      ],
      "stateMutability": "view",
      "type": "function"
    },
    {
      "inputs": [
        {
          "internalType": "address",
          "name": "",
          "type": "address"
        },
        {
          "internalType": "uint16",
          "name": "",
          "type": "uint16"
        }
      ],
      "name": "hasBeenAwardedNFT",
      "outputs": [
        {
          "internalType": "bool",
          "name": "",
          "type": "bool"
        }
      ],
      "stateMutability": "view",
      "type": "function"
    },
    {
      "inputs": [
        {
          "internalType": "uint16",
          "name": "",
          "type": "uint16"
        }
      ],
      "name": "isMilestone",
      "outputs": [
        {
          "internalType": "bool",
          "name": "",
          "type": "bool"
        }
      ],
      "stateMutability": "view",
      "type": "function"
    },
    {
      "inputs": [
        {
          "internalType": "address",
          "name": "forwarder",
          "type": "address"
        }
      ],
      "name": "isTrustedForwarder",
      "outputs": [
        {
          "internalType": "bool",
          "name": "",
          "type": "bool"
        }
      ],
      "stateMutability": "view",
      "type": "function"
    },
    {
      "inputs": [],
      "name": "nftContract",
      "outputs": [
        {
          "internalType": "contract HabitStreakNFT",
          "name": "",
          "type": "address"
        }
      ],
      "stateMutability": "view",
      "type": "function"
    },
    {
      "inputs": [
        {
          "internalType": "bytes32",
          "name": "_habitHash",
          "type": "bytes32"
        },
        {
          "internalType": "uint256",
          "name": "_duration",
          "type": "uint256"
        }
      ],
      "name": "stake",
      "outputs": [],
      "stateMutability": "nonpayable",
      "type": "function"
    },
    {
      "inputs": [],
      "name": "stakeToken",
      "outputs": [
        {
          "internalType": "contract IERC20",
          "name": "",
          "type": "address"
        }
      ],
      "stateMutability": "view",
      "type": "function"
    },
    {
      "inputs": [],
      "name": "successfulCompletions",
      "outputs": [
        {
          "internalType": "uint256",
          "name": "",
          "type": "uint256"
        }
      ],
      "stateMutability": "view",
      "type": "function"
    },
    {
      "inputs": [],
      "name": "trustedForwarder",
      "outputs": [
        {
          "internalType": "address",
          "name": "",
          "type": "address"
        }
      ],
      "stateMutability": "view",
      "type": "function"
    }
  ],
  "bytecode": "0x60e06040523480156200001157600080fd5b5060405162001cd838038062001cd88339818101604052810190620000379190620001d8565b808073ffffffffffffffffffffffffffffffffffffffff1660808173ffffffffffffffffffffffffffffffffffffffff1681525050508273ffffffffffffffffffffffffffffffffffffffff1660a08173ffffffffffffffffffffffffffffffffffffffff16815250508173ffffffffffffffffffffffffffffffffffffffff1660c08173ffffffffffffffffffffffffffffffffffffffff16815250506001806000600361ffff16815260200190815260200160002060006101000a81548160ff0219169083151502179055506001806000600761ffff16815260200190815260200160002060006101000a81548160ff0219169083151502179055506001806000600e61ffff16815260200190815260200160002060006101000a81548160ff02191690831515021790555050505062000234565b600080fd5b600073ffffffffffffffffffffffffffffffffffffffff82169050919050565b6000620001a08262000173565b9050919050565b620001b28162000193565b8114620001be57600080fd5b50565b600081519050620001d281620001a7565b92915050565b600080600060608486031215620001f457620001f36200016e565b5b60006200020486828701620001c1565b93505060206200021786828701620001c1565b92505060406200022a86828701620001c1565b9150509250925092565b60805160a05160c051611a5f6200027960003960008181610c000152610ec50152600081816104e9015281816106dc0152610a4d015260006105550152611a5f6000f3fe608060405234801561001057600080fd5b50600436106100ea5760003560e01c806387a9ae501161008c578063d3f2163611610066578063d3f216361461023f578063d56d229d1461025d578063e335749a1461027b578063faf5625f14610299576100ea565b806387a9ae50146101e95780638caa523014610219578063b88a802f14610235576100ea565b8063572b6c05116100c8578063572b6c051461014757806365200069146101775780637da0a877146101955780637ec2996b146101b3576100ea565b8063183ff085146100ef578063274cd09d146100f957806351ed6a3014610129575b600080fd5b6100f76102b7565b005b610113600480360381019061010e91906110be565b6104b8565b6040516101209190611119565b60405180910390f35b6101316104e7565b60405161013e9190611193565b60405180910390f35b610161600480360381019061015c91906111ae565b61050b565b60405161016e9190611119565b60405180910390f35b61017f61054a565b60405161018c91906111f4565b60405180910390f35b61019d610551565b6040516101aa919061121e565b60405180910390f35b6101cd60048036038101906101c891906111ae565b610579565b6040516101e09796959493929190611261565b60405180910390f35b61020360048036038101906101fe91906112d0565b6105d6565b6040516102109190611119565b60405180910390f35b610233600480360381019061022e9190611355565b6105f6565b005b61023d6108df565b005b610247610bf8565b60405161025491906111f4565b60405180910390f35b610265610bfe565b60405161027291906113b6565b60405180910390f35b610283610c22565b60405161029091906111f4565b60405180910390f35b6102a1610c28565b6040516102ae91906111f4565b60405180910390f35b60008060006102c4610c2f565b73ffffffffffffffffffffffffffffffffffffffff1673ffffffffffffffffffffffffffffffffffffffff16815260200190815260200160002090508060000160009054906101000a900460ff16610351576040517f08c379a00000000000000000000000000000000000000000000000000000000081526004016103489061142e565b60405180910390fd5b600262015180610361919061147d565b816005015461037091906114bf565b42111561038d57610387610382610c2f565b610c3e565b506104b6565b6201518081600501546103a091906114bf565b4210156103e2576040517f08c379a00000000000000000000000000000000000000000000000000000000081526004016103d99061153f565b60405180910390fd5b42816005018190555080600001600181819054906101000a900461ffff168092919061040d9061155f565b91906101000a81548161ffff021916908361ffff1602179055505061044b610433610c2f565b8260000160019054906101000a900461ffff16610d8b565b610453610c2f565b73ffffffffffffffffffffffffffffffffffffffff167f621d62c6c0c4a0c35e883c6b27ad50ecc3093f08bfaf8aa5f58127d351feeb218260000160019054906101000a900461ffff16426040516104ac9291906115ba565b60405180910390a2505b565b60026020528160005260406000206020528060005260406000206000915091509054906101000a900460ff1681565b7f000000000000000000000000000000000000000000000000000000000000000081565b6000610515610551565b73ffffffffffffffffffffffffffffffffffffffff168273ffffffffffffffffffffffffffffffffffffffff16149050919050565b6201518081565b60007f0000000000000000000000000000000000000000000000000000000000000000905090565b60006020528060005260406000206000915090508060000160009054906101000a900460ff16908060000160019054906101000a900461ffff16908060010154908060020154908060030154908060040154908060050154905087565b60016020528060005260406000206000915054906101000a900460ff1681565b600080610601610c2f565b73ffffffffffffffffffffffffffffffffffffffff1673ffffffffffffffffffffffffffffffffffffffff16815260200190815260200160002060000160009054906101000a900460ff161561068c576040517f08c379a000000000000000000000000000000000000000000000000000000000815260040161068390611655565b60405180910390fd5b600781148061069b5750601e81145b6106da576040517f08c379a00000000000000000000000000000000000000000000000000000000081526004016106d1906116c1565b60405180910390fd5b7f000000000000000000000000000000000000000000000000000000000000000073ffffffffffffffffffffffffffffffffffffffff166323b872dd61071e610c2f565b30624c4b406040518463ffffffff1660e01b8152600401610741939291906116e1565b6020604051808303816000875af1158015610760573d6000803e3d6000fd5b505050506040513d601f19601f820116820180604052508101906107849190611744565b506040518060e00160405280600115158152602001600061ffff168152602001624c4b408152602001838152602001428152602001828152602001428152506000806107ce610c2f565b73ffffffffffffffffffffffffffffffffffffffff1673ffffffffffffffffffffffffffffffffffffffff16815260200190815260200160002060008201518160000160006101000a81548160ff02191690831515021790555060208201518160000160016101000a81548161ffff021916908361ffff16021790555060408201518160010155606082015181600201556080820151816003015560a0820151816004015560c0820151816005015590505081610889610c2f565b73ffffffffffffffffffffffffffffffffffffffff167f25f65d9c97b4a56cfacc770c0cff698c89cdec846b4f8493eeb7a81dfe8b549783624c4b406040516108d3929190611771565b60405180910390a35050565b60008060006108ec610c2f565b73ffffffffffffffffffffffffffffffffffffffff1673ffffffffffffffffffffffffffffffffffffffff16815260200190815260200160002090508060000160009054906101000a900460ff16610979576040517f08c379a00000000000000000000000000000000000000000000000000000000081526004016109709061142e565b60405180910390fd5b62015180816004015461098c919061147d565b816003015461099b91906114bf565b4210156109dd576040517f08c379a00000000000000000000000000000000000000000000000000000000081526004016109d4906117e6565b60405180910390fd5b6000806003541180156109f257506000600454115b15610a0a57600454600354610a079190611835565b90505b60046000815480929190610a1d90611866565b9190505550600354811115610a325760035490505b8060036000828254610a4491906118ae565b925050819055507f000000000000000000000000000000000000000000000000000000000000000073ffffffffffffffffffffffffffffffffffffffff1663a9059cbb610a8f610c2f565b838560010154610a9f91906114bf565b6040518363ffffffff1660e01b8152600401610abc9291906118e2565b6020604051808303816000875af1158015610adb573d6000803e3d6000fd5b505050506040513d601f19601f82011682018060405250810190610aff9190611744565b50600080610b0b610c2f565b73ffffffffffffffffffffffffffffffffffffffff1673ffffffffffffffffffffffffffffffffffffffff168152602001908152602001600020600080820160006101000a81549060ff02191690556000820160016101000a81549061ffff0219169055600182016000905560028201600090556003820160009055600482016000905560058201600090555050610ba1610c2f565b73ffffffffffffffffffffffffffffffffffffffff167ff01da32686223933d8a18a391060918c7f11a3648639edd87ae013e2e2731743836001015483604051610bec929190611771565b60405180910390a25050565b60035481565b7f000000000000000000000000000000000000000000000000000000000000000081565b60045481565b624c4b4081565b6000610c39610fa4565b905090565b60008060008373ffffffffffffffffffffffffffffffffffffffff1673ffffffffffffffffffffffffffffffffffffffff1681526020019081526020016000209050600081600201549050816001015460036000828254610c9f91906114bf565b925050819055506000808473ffffffffffffffffffffffffffffffffffffffff1673ffffffffffffffffffffffffffffffffffffffff168152602001908152602001600020600080820160006101000a81549060ff02191690556000820160016101000a81549061ffff02191690556001820160009055600282016000905560038201600090556004820160009055600582016000905550508273ffffffffffffffffffffffffffffffffffffffff167fc4dbf4f3571d2e171fa2a8bd03a491766a359bdc9be859293c2f88e1718c9a3a82604051610d7e919061190b565b60405180910390a2505050565b600160008261ffff1661ffff16815260200190815260200160002060009054906101000a900460ff168015610e235750600260008373ffffffffffffffffffffffffffffffffffffffff1673ffffffffffffffffffffffffffffffffffffffff16815260200190815260200160002060008261ffff1661ffff16815260200190815260200160002060009054906101000a900460ff16155b15610fa0576001600260008473ffffffffffffffffffffffffffffffffffffffff1673ffffffffffffffffffffffffffffffffffffffff16815260200190815260200160002060008361ffff1661ffff16815260200190815260200160002060006101000a81548160ff02191690831515021790555060008161ffff168373ffffffffffffffffffffffffffffffffffffffff16610ec191906114bf565b90507f000000000000000000000000000000000000000000000000000000000000000073ffffffffffffffffffffffffffffffffffffffff1663a144819484836040518363ffffffff1660e01b8152600401610f1e9291906118e2565b600060405180830381600087803b158015610f3857600080fd5b505af1158015610f4c573d6000803e3d6000fd5b505050508273ffffffffffffffffffffffffffffffffffffffff167fa4a6dd06047d295dce17022e052037e4894d99fb875c1b57fb31d3c32eed584e83604051610f969190611926565b60405180910390a2505b5050565b600080600036905090506000610fb8611010565b9050808210158015610fcf5750610fce3361050b565b5b1561100057600036828403908092610fe99392919061194b565b90610ff491906119ca565b60601c9250505061100d565b611008611019565b925050505b90565b60006014905090565b600033905090565b600080fd5b600073ffffffffffffffffffffffffffffffffffffffff82169050919050565b600061105182611026565b9050919050565b61106181611046565b811461106c57600080fd5b50565b60008135905061107e81611058565b92915050565b600061ffff82169050919050565b61109b81611084565b81146110a657600080fd5b50565b6000813590506110b881611092565b92915050565b600080604083850312156110d5576110d4611021565b5b60006110e38582860161106f565b92505060206110f4858286016110a9565b9150509250929050565b60008115159050919050565b611113816110fe565b82525050565b600060208201905061112e600083018461110a565b92915050565b6000819050919050565b600061115961115461114f84611026565b611134565b611026565b9050919050565b600061116b8261113e565b9050919050565b600061117d82611160565b9050919050565b61118d81611172565b82525050565b60006020820190506111a86000830184611184565b92915050565b6000602082840312156111c4576111c3611021565b5b60006111d28482850161106f565b91505092915050565b6000819050919050565b6111ee816111db565b82525050565b600060208201905061120960008301846111e5565b92915050565b61121881611046565b82525050565b6000602082019050611233600083018461120f565b92915050565b61124281611084565b82525050565b6000819050919050565b61125b81611248565b82525050565b600060e082019050611276600083018a61110a565b6112836020830189611239565b61129060408301886111e5565b61129d6060830187611252565b6112aa60808301866111e5565b6112b760a08301856111e5565b6112c460c08301846111e5565b98975050505050505050565b6000602082840312156112e6576112e5611021565b5b60006112f4848285016110a9565b91505092915050565b61130681611248565b811461131157600080fd5b50565b600081359050611323816112fd565b92915050565b611332816111db565b811461133d57600080fd5b50565b60008135905061134f81611329565b92915050565b6000806040838503121561136c5761136b611021565b5b600061137a85828601611314565b925050602061138b85828601611340565b9150509250929050565b60006113a082611160565b9050919050565b6113b081611395565b82525050565b60006020820190506113cb60008301846113a7565b92915050565b600082825260208201905092915050565b7f4e6f20616374697665206368616c6c656e676500000000000000000000000000600082015250565b60006114186013836113d1565b9150611423826113e2565b602082019050919050565b600060208201905081810360008301526114478161140b565b9050919050565b7f4e487b7100000000000000000000000000000000000000000000000000000000600052601160045260246000fd5b6000611488826111db565b9150611493836111db565b92508282026114a1816111db565b915082820484148315176114b8576114b761144e565b5b5092915050565b60006114ca826111db565b91506114d5836111db565b92508282019050808211156114ed576114ec61144e565b5b92915050565b7f546f6f206561726c7920746f20636865636b20696e0000000000000000000000600082015250565b60006115296015836113d1565b9150611534826114f3565b602082019050919050565b600060208201905081810360008301526115588161151c565b9050919050565b600061156a82611084565b915061ffff820361157e5761157d61144e565b5b600182019050919050565b60006115a461159f61159a84611084565b611134565b6111db565b9050919050565b6115b481611589565b82525050565b60006040820190506115cf60008301856115ab565b6115dc60208301846111e5565b9392505050565b7f5573657220616c72656164792068617320616e20616374697665206368616c6c60008201527f656e676500000000000000000000000000000000000000000000000000000000602082015250565b600061163f6024836113d1565b915061164a826115e3565b604082019050919050565b6000602082019050818103600083015261166e81611632565b9050919050565b7f496e76616c6964206475726174696f6e00000000000000000000000000000000600082015250565b60006116ab6010836113d1565b91506116b682611675565b602082019050919050565b600060208201905081810360008301526116da8161169e565b9050919050565b60006060820190506116f6600083018661120f565b611703602083018561120f565b61171060408301846111e5565b949350505050565b611721816110fe565b811461172c57600080fd5b50565b60008151905061173e81611718565b92915050565b60006020828403121561175a57611759611021565b5b60006117688482850161172f565b91505092915050565b600060408201905061178660008301856111e5565b61179360208301846111e5565b9392505050565b7f4368616c6c656e6765206e6f742079657420636f6d706c657465000000000000600082015250565b60006117d0601a836113d1565b91506117db8261179a565b602082019050919050565b600060208201905081810360008301526117ff816117c3565b9050919050565b7f4e487b7100000000000000000000000000000000000000000000000000000000600052601260045260246000fd5b6000611840826111db565b915061184b836111db565b92508261185b5761185a611806565b5b828204905092915050565b6000611871826111db565b91507fffffffffffffffffffffffffffffffffffffffffffffffffffffffffffffffff82036118a3576118a261144e565b5b600182019050919050565b60006118b9826111db565b91506118c4836111db565b92508282039050818111156118dc576118db61144e565b5b92915050565b60006040820190506118f7600083018561120f565b61190460208301846111e5565b9392505050565b60006020820190506119206000830184611252565b92915050565b600060208201905061193b60008301846115ab565b92915050565b600080fd5b600080fd5b6000808585111561195f5761195e611941565b5b838611156119705761196f611946565b5b6001850283019150848603905094509492505050565b600082905092915050565b60007fffffffffffffffffffffffffffffffffffffffff00000000000000000000000082169050919050565b600082821b905092915050565b60006119d68383611986565b826119e18135611991565b92506014821015611a2157611a1c7fffffffffffffffffffffffffffffffffffffffff000000000000000000000000836014036008026119bd565b831692505b50509291505056fea2646970667358221220203097231c57c1c54b3f5645d4be9c86d477081b081c6b2e901406baa4b2870a64736f6c63430008140033",
  "linkReferences": {},
  "deployedLinkReferences": {}
}